:020000040800F2
:10000000005000202113000871130008711300082C
:10001000711300087113000871130008000000003C
:100020000000000000000000000000007113000844
:10003000711300080000000071130008011200088D
:10004000250B0008711300087113000871130008D4
:100050007113000871130008711300087113000870
:100060007113000871130008711300087113000860
:100070007113000871130008711300087113000850
:100080007113000871130008711300087113000840
:100090007113000871130008711300087113000830
:1000A0007113000871130008711300087113000820
:1000B0007113000871130008711300087113000810
:1000C0007113000871130008711300087113000800
:1000D00071130008711300087113000871130008F0
:1000E000711300087113000800000000711300086C
:1000F000711300087113000871130008890B0008C0
:1001000071130008711300087113000871130008BF
:1001100071130008711300087113000871130008AF
:10012000711300087113000871130008711300089F
:1001300010B5054C237833B9044B13B10448AFF321
:1001400000800123237010BD080000200000000083
:10015000BC13000808B5034B1BB103490348AFF3B8
:10016000008008BD000000000C000020BC13000847
:1001700080F0004002E000BF81F0004142001FBF5C
:100180005FEA410392EA030F7FEA226C7FEA236C65
:100190006AD04FEA1262D2EB1363C1BFD21841405A
:1001A00048404140B8BF5B42192B88BF704710F0F0
:1001B000004F40F4000020F07F4018BF404211F093
:1001C000004F41F4000121F07F4118BF494292EAFB
:1001D000030F3FD0A2F1010241FA03FC10EB0C0027
:1001E000C3F1200301FA03F100F0004302D54942B4
:1001F00060EB4000B0F5000F13D3B0F1807F06D361
:1002000040084FEA310102F10102FE2A51D2B1F158
:10021000004F40EBC25008BF20F0010040EA03004D
:100220007047490040EB0000013A28BFB0F5000FCD
:10023000EDD2B0FA80FCACF1080CB2EB0C0200FA83
:100240000CF0AABF00EBC25052421843BCBFD040D2
:100250001843704792F0000F81F4000106BF80F44C
:1002600000000132013BB5E74FEA41037FEA226C0F
:1002700018BF7FEA236C21D092EA030F04D092F0DA
:10028000000F08BF0846704790EA010F1CBF00200E
:10029000704712F07F4F04D1400028BF40F000406B
:1002A000704712F100723CBF00F50000704700F08B
:1002B000004343F0FE4040F4000070477FEA2262B2
:1002C00016BF08467FEA23630146420206BF5FEA83
:1002D000412390EA010F40F4800070474FF0000383
:1002E00004E000BF10F0004348BF40425FEA000C4A
:1002F00008BF704743F0964301464FF000001CE0F2
:1003000050EA010208BF70474FF000030AE000BF47
:1003100050EA010208BF704711F0004302D5404285
:1003200061EB41015FEA010C02BF844601460020F7
:1003300043F0B64308BFA3F18053A3F50003BCFA12
:100340008CF2083AA3EBC25310DB01FA02FC6344BF
:1003500000FA02FCC2F12002BCF1004F20FA02F2C6
:1003600043EB020008BF20F00100704702F12002B9
:1003700001FA02FCC2F1200250EA4C0021FA02F21A
:1003800043EB020008BF20EADC7070474FF0FF0C1F
:100390001CEAD0521EBF1CEAD15392EA0C0F93EA1A
:1003A0000C0F6FD01A4480EA010C400218BF5FEABC
:1003B00041211ED04FF0006343EA501043EA51112F
:1003C000A0FB01310CF00040B1F5000F3EBF490029
:1003D00041EAD3715B0040EA010062F17F02FD2A2D
:1003E0001DD8B3F1004F40EBC25008BF20F0010010
:1003F000704790F0000F0CF0004C08BF49024CEA27
:10040000502040EA51207F3AC2BFD2F1FF0340EAB8
:10041000C250704740F400004FF00003013A5DDC29
:1004200012F1190FDCBF00F000407047C2F100026A
:10043000410021FA02F1C2F1200200FA02FC5FEA57
:10044000310040F1000053EA4C0308BF20EADC70A1
:10045000704792F0000F00F0004C02BF400010F413
:10046000000F013AF9D040EA0C0093F0000F01F0C0
:10047000004C02BF490011F4000F013BF9D041EAE2
:100480000C018FE70CEAD15392EA0C0F18BF93EAE4
:100490000C0F0AD030F0004C18BF31F0004CD8D10E
:1004A00080EA010000F00040704790F0000F17BF95
:1004B00090F0004F084691F0000F91F0004F14D0DB
:1004C00092EA0C0F01D142020FD193EA0C0F03D133
:1004D0004B0218BF084608D180EA010000F0004036
:1004E00040F0FE4040F40000704740F0FE4040F411
:1004F000400070474FF0FF0C1CEAD0521EBF1CEAB0
:10050000D15392EA0C0F93EA0C0F69D0A2EB0302CD
:1005100080EA010C49024FEA402037D04FF0805367
:1005200043EA111143EA10130CF000408B4238BF2C
:100530005B0042F17D024FF4000C8B4224BF5B1A3A
:1005400040EA0C00B3EB510F24BFA3EB510340EA88
:100550005C00B3EB910F24BFA3EB910340EA9C0036
:10056000B3EBD10F24BFA3EBD10340EADC001B01A6
:1005700018BF5FEA1C1CE0D1FD2A3FF650AF8B424A
:1005800040EBC25008BF20F0010070470CF0004C57
:100590004CEA50207F32C2BFD2F1FF0340EAC25082
:1005A000704740F400004FF00003013A37E792F043
:1005B000000F00F0004C02BF400010F4000F013AA1
:1005C000F9D040EA0C0093F0000F01F0004C02BF9C
:1005D000490011F4000F013BF9D041EA0C0195E705
:1005E0000CEAD15392EA0C0F08D142027FF47DAF9E
:1005F00093EA0C0F7FF470AF084676E793EA0C0F8E
:1006000004D14B023FF44CAF08466EE730F0004C8B
:1006100018BF31F0004CCAD130F000427FF45CAF1B
:1006200031F000437FF43CAF5FE700BF42000ED2E1
:10063000B2F1FE4F0BD34FF09E03B3EB126209D41D
:100640004FEA002343F0004323FA02F070474FF0D3
:100650000000704712F1610F01D1420202D14FF048
:10066000FF3070474FF00000704700BF80B584B086
:1006700000AF78607868FFF731FE034613491846EB
:10068000FFF77AFD03461846FFF7D0FF03461846EA
:10069000FFF724FE03460E491846FFF72BFF0346DB
:1006A0001846FFF7C3FF0346BB600023FB6003E06F
:1006B00000BFFB680133FB60FA68BB689A42F7D35E
:1006C00000BF00BF1037BD4680BD00BF0456223FAB
:1006D000FFE7B03B80B483B000AF0346FB710B462D
:1006E000BB7113467B71FB79022B00F00D81022B4D
:1006F00000F39681002B03D0012B00F083808FE163
:10070000BB79072B3ED8A14B1B68BA799200012117
:1007100001FA02F2D24311469C4A0B4013609B4BF4
:100720001B68BA799200013A012101FA02F2D24320
:100730001146964A0B401360944B1B68BA7992009D
:10074000023A012101FA02F2D24311468F4A0B40CC
:1007500013608E4B1B68BA799200033A012101FAAB
:1007600002F2D2431146894A0B401360874B1B6843
:100770007979BA79920001FA02F21146834A0B4361
:1007800013604DE1824B1B68BA799200012101FA96
:1007900002F2D24311467E4A0B4013607C4B1B6829
:1007A000BA799200013A012101FA02F2D2431146CC
:1007B000774A0B401360764B1B68BA799200023A75
:1007C000012101FA02F2D2431146714A0B40136033
:1007D0006F4B1B68BA799200033A012101FA02F2C9
:1007E000D24311466A4A0B401360694B1B68797902
:1007F000BA79083A920001FA02F21146644A0B43B0
:1008000013600DE1BB79072B3ED8624B1B68BA79A8
:100810009200012101FA02F2D24311465D4A0B40D7
:1008200013605C4B1B68BA799200013A012101FA0E
:1008300002F2D2431146574A0B401360554B1B68D6
:10084000BA799200023A012101FA02F2D24311462A
:10085000504A0B4013604F4B1B68BA799200033A21
:10086000012101FA02F2D24311464A4A0B401360B9
:10087000484B1B687979BA79920001FA02F2114665
:10088000444A0B431360CBE0434B1B68BA79920098
:10089000012101FA02F2D24311463F4A0B40136094
:1008A0003D4B1B68BA799200013A012101FA02F22C
:1008B000D2431146384A0B401360374B1B68BA7954
:1008C0009200023A012101FA02F2D2431146324A61
:1008D0000B401360304B1B68BA799200033A012138
:1008E00001FA02F2D24311462B4A0B4013602A4B05
:1008F0001B687979BA79083A920001FA02F2114636
:10090000254A0B4313608BE0BB79072B48D8234B58
:100910001B68BA799200012101FA02F2D243114612
:100920001E4A0B4013601D4B1B68BA799200013AB6
:10093000012101FA02F2D2431146184A0B4013601A
:10094000164B1B68BA799200023A012101FA02F2B1
:10095000D2431146114A0B401360104B1B68BA7901
:100960009200033A012101FA02F2D24311460B4AE6
:100970000B401360094B1B687979BA79920001FA30
:1009800002F21146054A0B43136048E0000801409B
:1009900004080140000C0140040C0140001001401B
:1009A000224B1B68BA799200012101FA02F2D2436C
:1009B00011461E4A0B4013601C4B1B68BA7992000B
:1009C000013A012101FA02F2D2431146174A0B40C3
:1009D0001360164B1B68BA799200023A012101FAA2
:1009E00002F2D2431146114A0B4013600F4B1B68B1
:1009F000BA799200033A012101FA02F2D243114678
:100A00000A4A0B401360094B1B687979BA79083A96
:100A1000920001FA02F21146044A0B43136000BF30
:100A200000BF0C37BD4680BC704700BF04100140BA
:100A300080B483B000AF0346FB710B46BB71134615
:100A40007B71FB79022B40D0022B60DC002B02D0A3
:100A5000012B1DD05BE07B79002B0CD0012B51D1F9
:100A60002D4B1B68BA79012101FA02F211462A4A7C
:100A70000B4313600BE0284B1B68BA79012101FA84
:100A800002F2D2431146244A0B40136000BF39E002
:100A90007B79002B0CD0012B36D1204B1B68BA7907
:100AA000012101FA02F211461C4A0B4313600BE0CC
:100AB0001A4B1B68BA79012101FA02F2D24311469E
:100AC000164A0B40136000BF1EE07B79002B0CD050
:100AD000012B1BD1124B1B68BA79012101FA02F2DA
:100AE00011460F4A0B4313600BE00D4B1B68BA799C
:100AF000012101FA02F2D2431146094A0B40136068
:100B000000BF03E000BF02E000BF00E000BF00BF85
:100B10000C37BD4680BC70470C0801400C0C0140EE
:100B20000C10014080B586B000AF154A07F10C03E8
:100B300007CA03C31A7007F10C0309220121002020
:100B400000F09BF82F2000F0BDF941F28830FFF74C
:100B50008DFD0C4A3B1D92E8030018600433198098
:100B600002330A0C1A703B1D07220121022000F0FB
:100B700084F8002000F0F4F900BF1837BD4680BDAE
:100B8000D4130008E013000880B500AF012207214C
:100B90000020FFF79FFD012207210020FFF748FFFB
:100BA0002F2000F0DDF900BF80BD80B582B000AF1E
:100BB000012200210120FFF78DFD012201210120EA
:100BC000FFF788FD012202210120FFF783FD0122AA
:100BD00003210120FFF77EFD012207210120FFF7FD
:100BE00079FD012206210120FFF774FD0F20FFF798
:100BF0003DFD022000F067F80F20FFF737FD0220CF
:100C000000F061F80F20FFF731FD2823FB71FB791D
:100C1000184600F058F80F20FFF728FD0E23FB714F
:100C2000FB79184600F04FF80F20FFF71FFD422315
:100C3000FB71FB79184600F046F80F20FFF716FD10
:100C40000123FB71FB79184600F03DF80F20FFF7F8
:100C50000DFD00BF0837BD4680BD80B582B000AF36
:100C60000123FB71FB79184600F02DF80A20FFF7ED
:100C7000FDFC00BF0837BD4680BD80B584B000AF25
:100C80003B600346FB710B46BB7113467B71BA791F
:100C9000FB791146184600F0E1F80023FB7309E0E8
:100CA000FB7B3A6813441B78184600F0BFF8FB7BC7
:100CB0000133FB73FA7B7B799A42F1D300BF00BF0B
:100CC0001037BD4680BD80B582B000AF0346FB71D2
:100CD00000F094F80A20FFF7C9FC00220721012048
:100CE000FFF7A6FEFB79184600F004F800BF0837AE
:100CF000BD4680BD80B584B000AF0346FB71FB7973
:100D000003F00F03FB73FB791B09BB73BB7B03F081
:100D10000103DBB21A4600210120FFF789FEBB7BED
:100D20005B08DBB203F00103DBB21A4601210120AC
:100D3000FFF77EFEBB7B9B08DBB203F00103DBB257
:100D40001A4602210120FFF773FEBB7BDB08DBB2F2
:100D500003F00103DBB21A4603210120FFF768FE0E
:100D6000012206210120FFF763FE0A20FFF77EFC27
:100D7000002206210120FFF75BFE0A20FFF776FC28
:100D8000FB7B03F00103DBB21A4600210120FFF7D1
:100D90004FFEFB7B5B08DBB203F00103DBB21A46BC
:100DA00001210120FFF744FEFB7B9B08DBB203F02F
:100DB0000103DBB21A4602210120FFF739FEFB7B5B
:100DC000DB08DBB203F00103DBB21A46032101208A
:100DD000FFF72EFE012206210120FFF729FE0A203F
:100DE000FFF744FC002206210120FFF721FE0A2024
:100DF000FFF73CFC00BF1037BD4680BD80B500AF9B
:100E0000002200210120FFF713FE00220121012012
:100E1000FFF70EFE002202210120FFF709FE00224B
:100E200003210120FFF704FE00BF80BD80B582B022
:100E300000AF0346FB71FFF7E1FF0A20FFF716FC46
:100E4000012207210120FFF7F3FDFB791846FFF788
:100E500051FF00BF0837BD4680BD000080B584B09B
:100E600000AF03460A46FB711346BB710023FB73B8
:100E7000FB79032B19D801A252F823F08D0E00083C
:100E8000930E00089B0E0008A30E0008BB79FB73AD
:100E90000BE0BB794033FB7307E0BB791433FB7382
:100EA00003E0BB795433FB7300BFFB7B63F07F032C
:100EB000BB73BB7B1846FFF706FF00BF1037BD466C
:100EC00080BD00BF80B483B000AF0346FB71FB79E7
:100ED0001F2B0ED8214B1B68D3F80021FB79012171
:100EE00001FA03F319461D4B1B680A43C3F800219E
:100EF0002DE0FB791F2B12D9FB793F2B0FD8174B15
:100F00001B68D3F80421FB79203B012101FA03F38C
:100F10001946124B1B680A43C3F8042117E0FB79FA
:100F20003F2B12D9FB79432B0FD80C4B1B68D3F8FE
:100F30000821FB79403B012101FA03F31946074BD5
:100F40001B680A43C3F8082101E0002300E00123E5
:100F500018460C37BD4680BC704700BF000000201B
:100F600080B483B000AF0346FB71FB791F2B0ED812
:100F7000214B1B68D3F88021FB79012101FA03F38F
:100F800019461D4B1B680A43C3F880212DE0FB79ED
:100F90001F2B12D9FB793F2B0FD8174B1B68D3F8A7
:100FA0008421FB79203B012101FA03F31946124BFE
:100FB0001B680A43C3F8842117E0FB793F2B12D941
:100FC000FB79432B0FD80C4B1B68D3F88821FB7996
:100FD000403B012101FA03F31946074B1B680A4302
:100FE000C3F8882101E0002300E0012318460C37F4
:100FF000BD4680BC704700BF0000002080B400AF39
:101000000D4B1B680C4A43F0010313600A4B0A4A5C
:101010005B68536000BF084B1B6803F00203002BA2
:10102000F9D0054B1B68044A23F40023136000BF6A
:10103000BD4680BC704700BF0010024080B485B040
:1010400000AF0346FB710B46BB7113467B71012356
:10105000FB737B79032B63D0032B7EDC012B02D047
:10106000022B2DD079E0FB79032B1CD0032B25DC40
:10107000012B02D0022B0BD020E03B4B5B69BA79ED
:10108000012101FA02F21146374A0B43536116E07F
:10109000354BDB69BA79012101FA02F21146324A75
:1010A0000B43D3610BE0304B9B69BA79012101FA04
:1010B00002F211462C4A0B43936100E000BF4CE062
:1010C000FB79032B1ED0032B28DC012B02D0022B33
:1010D0000CD023E0244B5B69BA79012101FA02F2BA
:1010E000D2431146204A0B40536118E01E4BDB6986
:1010F000BA79012101FA02F2D24311461A4A0B4091
:10110000D3610CE0184B9B69BA79012101FA02F214
:10111000D2431146144A0B40936100E000BF1CE02B
:10112000FB79022B02D0032B0BD015E00E4B1B6971
:10113000BA79012101FA02F211460B4A0B431361FD
:101140000AE0094BDB68BA79012101FA02F2114683
:10115000054A0B43D36000BF00BFFB7B1846143722
:10116000BD4680BC704700BF0010024080B400AF95
:10117000084B1B68074A43F004031360054B1B68C8
:10118000044A43F00203136000231846BD4680BCA6
:10119000704700BF10E000E080B400AF054B1B6853
:1011A000044A43F00103136000231846BD4680BC87
:1011B000704700BF10E000E080B483B000AF7860FB
:1011C000044A7B681360002318460C37BD4680BC78
:1011D000704700BF2400002080B483B000AF786067
:1011E000396006497B683A6802FB03F30B60002311
:1011F00018460C37BD4680BC704700BF14E000E0C5
:1012000080B500AF0A4B1B780133DAB2084B1A7075
:10121000084B1B68084A127810469847064B1B7803
:1012200083F00103DAB2044B1A7000BF80BD00BF27
:1012300028000020240000200400002090B587B082
:1012400000AFFFF7DBFE012202210320FFF7F6FECD
:10125000012203210320FFF7F1FEFFF787FF224859
:10126000FFF7AAFF21490120FFF7B6FFFFF794FF20
:10127000FFF79BFC1E4B1B68012B02D1FFF7EDFC17
:10128000F8E71B4B1B68052B0AD143F24763BB826F
:1012900007F11403022200210020FFF7EEFCE9E72A
:1012A000134B1B68062B02D1FFF7D7FCE2E7104B6C
:1012B0001B680A2BDED143F247633B8207F1100320
:1012C000022200210020FFF7D8FC0A4B3C460FCB3E
:1012D00007C423803B46102200210220FFF7CDFCEB
:1012E000034B00221A60C5E7F912000800127A00C9
:1012F00028000020E813000880B582B000AF034644
:10130000FB71012207210020FFF7E4F9FB791A465F
:1013100007210020FFF78CFB00BF0837BD4680BDCA
:101320000D488546AFF300800C480D490D4A002357
:1013300002E0D458C4500433C4188C42F9D30A4A8A
:101340000A4C002301E013600432A242FBD300F0F8
:1013500011F8FFF773FFFEE70050002000000020A7
:101360000800002000140008080000202C000020C5
:10137000FEE7000070B500260C4D0D4C641BA41058
:10138000A64209D100F01AF800260A4D0A4C641B47
:10139000A410A64205D170BD55F8043B984701360C
:1013A000EEE755F8043B98470136F2E7F8130008DA
:1013B000F8130008F8130008FC130008F8B500BF84
:1013C000F8BC08BC9E467047F8B500BFF8BC08BC26
:0413D0009E4670477E
:1013D4005744472053544152540000005744472077
:1013E400454E4400465245452050414C45535449CE
:0413F4004E45000062
:0413F8005501000893
:0413FC0031010008B3
:0814000000E100E00100000022
:0400000508001321BB
:00000001FF
